{
  "contractName": "CarbonCredit",
  "abi": [
    {
      "inputs": [],
      "payable": false,
      "stateMutability": "nonpayable",
      "type": "constructor"
    },
    {
      "anonymous": false,
      "inputs": [
        {
          "indexed": true,
          "internalType": "address",
          "name": "owner",
          "type": "address"
        },
        {
          "indexed": true,
          "internalType": "address",
          "name": "spender",
          "type": "address"
        },
        {
          "indexed": false,
          "internalType": "uint256",
          "name": "value",
          "type": "uint256"
        }
      ],
      "name": "Approval",
      "type": "event"
    },
    {
      "anonymous": false,
      "inputs": [
        {
          "indexed": true,
          "internalType": "address",
          "name": "from",
          "type": "address"
        },
        {
          "indexed": true,
          "internalType": "address",
          "name": "to",
          "type": "address"
        },
        {
          "indexed": false,
          "internalType": "uint256",
          "name": "value",
          "type": "uint256"
        }
      ],
      "name": "Transfer",
      "type": "event"
    },
    {
      "constant": true,
      "inputs": [
        {
          "internalType": "address",
          "name": "owner",
          "type": "address"
        },
        {
          "internalType": "address",
          "name": "spender",
          "type": "address"
        }
      ],
      "name": "allowance",
      "outputs": [
        {
          "internalType": "uint256",
          "name": "",
          "type": "uint256"
        }
      ],
      "payable": false,
      "stateMutability": "view",
      "type": "function"
    },
    {
      "constant": false,
      "inputs": [
        {
          "internalType": "address",
          "name": "spender",
          "type": "address"
        },
        {
          "internalType": "uint256",
          "name": "amount",
          "type": "uint256"
        }
      ],
      "name": "approve",
      "outputs": [
        {
          "internalType": "bool",
          "name": "",
          "type": "bool"
        }
      ],
      "payable": false,
      "stateMutability": "nonpayable",
      "type": "function"
    },
    {
      "constant": true,
      "inputs": [
        {
          "internalType": "address",
          "name": "account",
          "type": "address"
        }
      ],
      "name": "balanceOf",
      "outputs": [
        {
          "internalType": "uint256",
          "name": "",
          "type": "uint256"
        }
      ],
      "payable": false,
      "stateMutability": "view",
      "type": "function"
    },
    {
      "constant": false,
      "inputs": [
        {
          "internalType": "address",
          "name": "spender",
          "type": "address"
        },
        {
          "internalType": "uint256",
          "name": "subtractedValue",
          "type": "uint256"
        }
      ],
      "name": "decreaseAllowance",
      "outputs": [
        {
          "internalType": "bool",
          "name": "",
          "type": "bool"
        }
      ],
      "payable": false,
      "stateMutability": "nonpayable",
      "type": "function"
    },
    {
      "constant": false,
      "inputs": [
        {
          "internalType": "address",
          "name": "spender",
          "type": "address"
        },
        {
          "internalType": "uint256",
          "name": "addedValue",
          "type": "uint256"
        }
      ],
      "name": "increaseAllowance",
      "outputs": [
        {
          "internalType": "bool",
          "name": "",
          "type": "bool"
        }
      ],
      "payable": false,
      "stateMutability": "nonpayable",
      "type": "function"
    },
    {
      "constant": true,
      "inputs": [],
      "name": "totalSupply",
      "outputs": [
        {
          "internalType": "uint256",
          "name": "",
          "type": "uint256"
        }
      ],
      "payable": false,
      "stateMutability": "view",
      "type": "function"
    },
    {
      "constant": false,
      "inputs": [
        {
          "internalType": "address",
          "name": "recipient",
          "type": "address"
        },
        {
          "internalType": "uint256",
          "name": "amount",
          "type": "uint256"
        }
      ],
      "name": "transfer",
      "outputs": [
        {
          "internalType": "bool",
          "name": "",
          "type": "bool"
        }
      ],
      "payable": false,
      "stateMutability": "nonpayable",
      "type": "function"
    },
    {
      "constant": false,
      "inputs": [
        {
          "internalType": "address",
          "name": "sender",
          "type": "address"
        },
        {
          "internalType": "address",
          "name": "recipient",
          "type": "address"
        },
        {
          "internalType": "uint256",
          "name": "amount",
          "type": "uint256"
        }
      ],
      "name": "transferFrom",
      "outputs": [
        {
          "internalType": "bool",
          "name": "",
          "type": "bool"
        }
      ],
      "payable": false,
      "stateMutability": "nonpayable",
      "type": "function"
    },
    {
      "constant": false,
      "inputs": [
        {
          "internalType": "uint256",
          "name": "generatorId",
          "type": "uint256"
        },
        {
          "internalType": "string",
          "name": "name",
          "type": "string"
        },
        {
          "internalType": "address",
          "name": "thisAdd",
          "type": "address"
        }
      ],
      "name": "createGenerator",
      "outputs": [],
      "payable": false,
      "stateMutability": "nonpayable",
      "type": "function"
    },
    {
      "constant": false,
      "inputs": [
        {
          "internalType": "uint256",
          "name": "consumerId",
          "type": "uint256"
        },
        {
          "internalType": "string",
          "name": "name",
          "type": "string"
        },
        {
          "internalType": "address",
          "name": "thisAdd",
          "type": "address"
        }
      ],
      "name": "createConsumer",
      "outputs": [],
      "payable": false,
      "stateMutability": "nonpayable",
      "type": "function"
    },
    {
      "constant": false,
      "inputs": [
        {
          "internalType": "uint256",
          "name": "generatorId",
          "type": "uint256"
        },
        {
          "internalType": "uint256",
          "name": "credit",
          "type": "uint256"
        }
      ],
      "name": "allocateCredit",
      "outputs": [],
      "payable": false,
      "stateMutability": "nonpayable",
      "type": "function"
    },
    {
      "constant": false,
      "inputs": [
        {
          "internalType": "uint256",
          "name": "consumerId",
          "type": "uint256"
        },
        {
          "internalType": "uint256",
          "name": "emission",
          "type": "uint256"
        }
      ],
      "name": "reportEmission",
      "outputs": [],
      "payable": false,
      "stateMutability": "nonpayable",
      "type": "function"
    },
    {
      "constant": false,
      "inputs": [
        {
          "internalType": "uint256",
          "name": "consumerId",
          "type": "uint256"
        },
        {
          "internalType": "uint256",
          "name": "delta",
          "type": "uint256"
        },
        {
          "internalType": "bool",
          "name": "subtract",
          "type": "bool"
        }
      ],
      "name": "updateConsumerBalance",
      "outputs": [],
      "payable": false,
      "stateMutability": "nonpayable",
      "type": "function"
    },
    {
      "constant": false,
      "inputs": [
        {
          "internalType": "uint256",
          "name": "generatorId",
          "type": "uint256"
        },
        {
          "internalType": "uint256",
          "name": "delta",
          "type": "uint256"
        },
        {
          "internalType": "bool",
          "name": "subtract",
          "type": "bool"
        }
      ],
      "name": "updateGeneratorBalance",
      "outputs": [],
      "payable": false,
      "stateMutability": "nonpayable",
      "type": "function"
    },
    {
      "constant": true,
      "inputs": [
        {
          "internalType": "uint256",
          "name": "consumerId",
          "type": "uint256"
        }
      ],
      "name": "getConsumerCredits",
      "outputs": [
        {
          "internalType": "uint256",
          "name": "credit",
          "type": "uint256"
        }
      ],
      "payable": false,
      "stateMutability": "view",
      "type": "function"
    },
    {
      "constant": true,
      "inputs": [
        {
          "internalType": "uint256",
          "name": "generatorId",
          "type": "uint256"
        }
      ],
      "name": "getGeneratorCredits",
      "outputs": [
        {
          "internalType": "uint256",
          "name": "credit",
          "type": "uint256"
        }
      ],
      "payable": false,
      "stateMutability": "view",
      "type": "function"
    },
    {
      "constant": true,
      "inputs": [
        {
          "internalType": "uint256",
          "name": "ID",
          "type": "uint256"
        }
      ],
      "name": "isGenerator",
      "outputs": [
        {
          "internalType": "bool",
          "name": "doesExist",
          "type": "bool"
        }
      ],
      "payable": false,
      "stateMutability": "view",
      "type": "function"
    },
    {
      "constant": true,
      "inputs": [
        {
          "internalType": "uint256",
          "name": "ID",
          "type": "uint256"
        }
      ],
      "name": "isConsumer",
      "outputs": [
        {
          "internalType": "bool",
          "name": "doesExist",
          "type": "bool"
        }
      ],
      "payable": false,
      "stateMutability": "view",
      "type": "function"
    },
    {
      "constant": true,
      "inputs": [],
      "name": "checkEmission",
      "outputs": [
        {
          "internalType": "uint256[]",
          "name": "",
          "type": "uint256[]"
        },
        {
          "internalType": "uint256[]",
          "name": "",
          "type": "uint256[]"
        },
        {
          "internalType": "uint256[]",
          "name": "",
          "type": "uint256[]"
        },
        {
          "internalType": "uint256[]",
          "name": "",
          "type": "uint256[]"
        }
      ],
      "payable": false,
      "stateMutability": "view",
      "type": "function"
    }
  ],
  "bytecode": "0x608060405234801561001057600080fd5b5033600360006101000a81548173ffffffffffffffffffffffffffffffffffffffff021916908373ffffffffffffffffffffffffffffffffffffffff1602179055506120a8806100616000396000f3fe608060405234801561001057600080fd5b50600436106101215760003560e01c806370a08231116100ad578063b272f72d11610071578063b272f72d1461062d578063d7f671bd14610665578063dd62ed3e1461079c578063df4b4ba414610814578063fa25f970146108f957610121565b806370a082311461048f5780638213aab9146104e75780638ff283c21461051f578063a457c2d714610561578063a9059cbb146105c757610121565b806337c98264116100f457806337c982641461027657806339509351146102bc578063528b324a146103225780636792c7501461036657806367a8f5cb1461044b57610121565b8063095ea7b3146101265780630bdb30691461018c57806318160ddd146101d257806323b872dd146101f0575b600080fd5b6101726004803603604081101561013c57600080fd5b81019080803573ffffffffffffffffffffffffffffffffffffffff1690602001909291908035906020019092919050505061093b565b604051808215151515815260200191505060405180910390f35b6101b8600480360360208110156101a257600080fd5b8101908080359060200190929190505050610959565b604051808215151515815260200191505060405180910390f35b6101da610983565b6040518082815260200191505060405180910390f35b61025c6004803603606081101561020657600080fd5b81019080803573ffffffffffffffffffffffffffffffffffffffff169060200190929190803573ffffffffffffffffffffffffffffffffffffffff1690602001909291908035906020019092919050505061098d565b604051808215151515815260200191505060405180910390f35b6102a26004803603602081101561028c57600080fd5b8101908080359060200190929190505050610a66565b604051808215151515815260200191505060405180910390f35b610308600480360360408110156102d257600080fd5b81019080803573ffffffffffffffffffffffffffffffffffffffff16906020019092919080359060200190929190505050610a90565b604051808215151515815260200191505060405180910390f35b6103646004803603606081101561033857600080fd5b810190808035906020019092919080359060200190929190803515159060200190929190505050610b43565b005b6104496004803603606081101561037c57600080fd5b8101908080359060200190929190803590602001906401000000008111156103a357600080fd5b8201836020820111156103b557600080fd5b803590602001918460018302840111640100000000831117156103d757600080fd5b91908080601f016020809104026020016040519081016040528093929190818152602001838380828437600081840152601f19601f820116905080830192505050505050509192919290803573ffffffffffffffffffffffffffffffffffffffff169060200190929190505050610bcd565b005b61048d6004803603606081101561046157600080fd5b810190808035906020019092919080359060200190929190803515159060200190929190505050610d98565b005b6104d1600480360360208110156104a557600080fd5b81019080803573ffffffffffffffffffffffffffffffffffffffff169060200190929190505050610e22565b6040518082815260200191505060405180910390f35b61051d600480360360408110156104fd57600080fd5b810190808035906020019092919080359060200190929190505050610e6a565b005b61054b6004803603602081101561053557600080fd5b8101908080359060200190929190505050610f6d565b6040518082815260200191505060405180910390f35b6105ad6004803603604081101561057757600080fd5b81019080803573ffffffffffffffffffffffffffffffffffffffff16906020019092919080359060200190929190505050610fbe565b604051808215151515815260200191505060405180910390f35b610613600480360360408110156105dd57600080fd5b81019080803573ffffffffffffffffffffffffffffffffffffffff1690602001909291908035906020019092919050505061108b565b604051808215151515815260200191505060405180910390f35b6106636004803603604081101561064357600080fd5b8101908080359060200190929190803590602001909291905050506110a9565b005b61066d611163565b6040518080602001806020018060200180602001858103855289818151815260200191508051906020019060200280838360005b838110156106bc5780820151818401526020810190506106a1565b50505050905001858103845288818151815260200191508051906020019060200280838360005b838110156106fe5780820151818401526020810190506106e3565b50505050905001858103835287818151815260200191508051906020019060200280838360005b83811015610740578082015181840152602081019050610725565b50505050905001858103825286818151815260200191508051906020019060200280838360005b83811015610782578082015181840152602081019050610767565b505050509050019850505050505050505060405180910390f35b6107fe600480360360408110156107b257600080fd5b81019080803573ffffffffffffffffffffffffffffffffffffffff169060200190929190803573ffffffffffffffffffffffffffffffffffffffff16906020019092919050505061142c565b6040518082815260200191505060405180910390f35b6108f76004803603606081101561082a57600080fd5b81019080803590602001909291908035906020019064010000000081111561085157600080fd5b82018360208201111561086357600080fd5b8035906020019184600183028401116401000000008311171561088557600080fd5b91908080601f016020809104026020016040519081016040528093929190818152602001838380828437600081840152601f19601f820116905080830192505050505050509192919290803573ffffffffffffffffffffffffffffffffffffffff1690602001909291905050506114b3565b005b6109256004803603602081101561090f57600080fd5b8101908080359060200190929190505050611641565b6040518082815260200191505060405180910390f35b600061094f610948611692565b848461169a565b6001905092915050565b60006007600083815260200190815260200160002060009054906101000a900460ff169050919050565b6000600254905090565b600061099a848484611891565b610a5b846109a6611692565b610a5685604051806060016040528060288152602001611fde60289139600160008b73ffffffffffffffffffffffffffffffffffffffff1673ffffffffffffffffffffffffffffffffffffffff1681526020019081526020016000206000610a0c611692565b73ffffffffffffffffffffffffffffffffffffffff1673ffffffffffffffffffffffffffffffffffffffff16815260200190815260200160002054611b479092919063ffffffff16565b61169a565b600190509392505050565b60006008600083815260200190815260200160002060009054906101000a900460ff169050919050565b6000610b39610a9d611692565b84610b348560016000610aae611692565b73ffffffffffffffffffffffffffffffffffffffff1673ffffffffffffffffffffffffffffffffffffffff16815260200190815260200160002060008973ffffffffffffffffffffffffffffffffffffffff1673ffffffffffffffffffffffffffffffffffffffff16815260200190815260200160002054611c0790919063ffffffff16565b61169a565b6001905092915050565b600115156008600085815260200190815260200160002060009054906101000a900460ff16151514610b7457600080fd5b8015610ba357816005600085815260200190815260200160002060010160008282540392505081905550610bc8565b8160056000858152602001908152602001600020600101600082825401925050819055505b505050565b3373ffffffffffffffffffffffffffffffffffffffff16600360009054906101000a900473ffffffffffffffffffffffffffffffffffffffff1673ffffffffffffffffffffffffffffffffffffffff1614610c2757600080fd5b600015156008600085815260200190815260200160002060009054906101000a900460ff16151514610c5857600080fd5b610c60611e4a565b6040518060a0016040528085815260200160648152602001600081526020018481526020018373ffffffffffffffffffffffffffffffffffffffff16815250905080600560008681526020019081526020016000206000820151816000015560208201518160010155604082015181600201556060820151816003019080519060200190610cef929190611e8f565b5060808201518160040160006101000a81548173ffffffffffffffffffffffffffffffffffffffff021916908373ffffffffffffffffffffffffffffffffffffffff16021790555090505060016008600086815260200190815260200160002060006101000a81548160ff021916908315150217905550600984908060018154018082558091505090600182039060005260206000200160009091929091909150555050505050565b600115156007600085815260200190815260200160002060009054906101000a900460ff16151514610dc957600080fd5b8015610df857816004600085815260200190815260200160002060010160008282540392505081905550610e1d565b8160046000858152602001908152602001600020600101600082825401925050819055505b505050565b60008060008373ffffffffffffffffffffffffffffffffffffffff1673ffffffffffffffffffffffffffffffffffffffff168152602001908152602001600020549050919050565b60011515600660003373ffffffffffffffffffffffffffffffffffffffff1673ffffffffffffffffffffffffffffffffffffffff16815260200190815260200160002060009054906101000a900460ff16151514610ec757600080fd5b600115156007600084815260200190815260200160002060009054906101000a900460ff16151514610ef857600080fd5b60008111610f0557600080fd5b610f456004600084815260200190815260200160002060030160009054906101000a900473ffffffffffffffffffffffffffffffffffffffff1682611c8f565b8060046000848152602001908152602001600020600101600082825401925050819055505050565b6000600115156007600084815260200190815260200160002060009054906101000a900460ff16151514610fa057600080fd5b60046000838152602001908152602001600020600101549050919050565b6000611081610fcb611692565b8461107c8560405180606001604052806025815260200161204f6025913960016000610ff5611692565b73ffffffffffffffffffffffffffffffffffffffff1673ffffffffffffffffffffffffffffffffffffffff16815260200190815260200160002060008a73ffffffffffffffffffffffffffffffffffffffff1673ffffffffffffffffffffffffffffffffffffffff16815260200190815260200160002054611b479092919063ffffffff16565b61169a565b6001905092915050565b600061109f611098611692565b8484611891565b6001905092915050565b60011515600660003373ffffffffffffffffffffffffffffffffffffffff1673ffffffffffffffffffffffffffffffffffffffff16815260200190815260200160002060009054906101000a900460ff1615151461110657600080fd5b6000811161111357600080fd5b600115156008600084815260200190815260200160002060009054906101000a900460ff1615151461114457600080fd5b8060056000848152602001908152602001600020600201819055505050565b6060806060803373ffffffffffffffffffffffffffffffffffffffff16600360009054906101000a900473ffffffffffffffffffffffffffffffffffffffff1673ffffffffffffffffffffffffffffffffffffffff16146111c357600080fd5b600080600090505b60098054905081101561124b576000600982815481106111e757fe5b906000526020600020015490506000600560008381526020019081526020016000206001015490506000600560008481526020019081526020016000206002015490508181111561123b5784806001019550505b50505080806001019150506111cb565b5060608160405190808252806020026020018201604052801561127d5781602001602082028038833980820191505090505b5090506060826040519080825280602002602001820160405280156112b15781602001602082028038833980820191505090505b5090506060836040519080825280602002602001820160405280156112e55781602001602082028038833980820191505090505b5090506060846040519080825280602002602001820160405280156113195781602001602082028038833980820191505090505b509050600080905060008090505b6009805490508110156114135760006009828154811061134357fe5b90600052602060002001549050600060056000838152602001908152602001600020600101549050600060056000848152602001908152602001600020600201549050818111156114035760008282039050838a87815181106113a257fe5b602002602001018181525050828987815181106113bb57fe5b602002602001018181525050818887815181106113d457fe5b602002602001018181525050808787815181106113ed57fe5b6020026020010181815250508580600101965050505b5050508080600101915050611327565b5084848484995099509950995050505050505090919293565b6000600160008473ffffffffffffffffffffffffffffffffffffffff1673ffffffffffffffffffffffffffffffffffffffff16815260200190815260200160002060008373ffffffffffffffffffffffffffffffffffffffff1673ffffffffffffffffffffffffffffffffffffffff16815260200190815260200160002054905092915050565b3373ffffffffffffffffffffffffffffffffffffffff16600360009054906101000a900473ffffffffffffffffffffffffffffffffffffffff1673ffffffffffffffffffffffffffffffffffffffff161461150d57600080fd5b600015156007600085815260200190815260200160002060009054906101000a900460ff1615151461153e57600080fd5b611546611f0f565b6040518060800160405280858152602001600081526020018481526020018373ffffffffffffffffffffffffffffffffffffffff1681525090508060046000868152602001908152602001600020600082015181600001556020820151816001015560408201518160020190805190602001906115c4929190611e8f565b5060608201518160030160006101000a81548173ffffffffffffffffffffffffffffffffffffffff021916908373ffffffffffffffffffffffffffffffffffffffff16021790555090505060016007600086815260200190815260200160002060006101000a81548160ff02191690831515021790555050505050565b6000600115156008600084815260200190815260200160002060009054906101000a900460ff1615151461167457600080fd5b60056000838152602001908152602001600020600101549050919050565b600033905090565b600073ffffffffffffffffffffffffffffffffffffffff168373ffffffffffffffffffffffffffffffffffffffff161415611720576040517f08c379a000000000000000000000000000000000000000000000000000000000815260040180806020018281038252602481526020018061202b6024913960400191505060405180910390fd5b600073ffffffffffffffffffffffffffffffffffffffff168273ffffffffffffffffffffffffffffffffffffffff1614156117a6576040517f08c379a0000000000000000000000000000000000000000000000000000000008152600401808060200182810382526022815260200180611f966022913960400191505060405180910390fd5b80600160008573ffffffffffffffffffffffffffffffffffffffff1673ffffffffffffffffffffffffffffffffffffffff16815260200190815260200160002060008473ffffffffffffffffffffffffffffffffffffffff1673ffffffffffffffffffffffffffffffffffffffff168152602001908152602001600020819055508173ffffffffffffffffffffffffffffffffffffffff168373ffffffffffffffffffffffffffffffffffffffff167f8c5be1e5ebec7d5bd14f71427d1e84f3dd0314c0f7b2291e5b200ac8c7c3b925836040518082815260200191505060405180910390a3505050565b600073ffffffffffffffffffffffffffffffffffffffff168373ffffffffffffffffffffffffffffffffffffffff161415611917576040517f08c379a00000000000000000000000000000000000000000000000000000000081526004018080602001828103825260258152602001806120066025913960400191505060405180910390fd5b600073ffffffffffffffffffffffffffffffffffffffff168273ffffffffffffffffffffffffffffffffffffffff16141561199d576040517f08c379a0000000000000000000000000000000000000000000000000000000008152600401808060200182810382526023815260200180611f736023913960400191505060405180910390fd5b611a0881604051806060016040528060268152602001611fb8602691396000808773ffffffffffffffffffffffffffffffffffffffff1673ffffffffffffffffffffffffffffffffffffffff16815260200190815260200160002054611b479092919063ffffffff16565b6000808573ffffffffffffffffffffffffffffffffffffffff1673ffffffffffffffffffffffffffffffffffffffff16815260200190815260200160002081905550611a9b816000808573ffffffffffffffffffffffffffffffffffffffff1673ffffffffffffffffffffffffffffffffffffffff16815260200190815260200160002054611c0790919063ffffffff16565b6000808473ffffffffffffffffffffffffffffffffffffffff1673ffffffffffffffffffffffffffffffffffffffff168152602001908152602001600020819055508173ffffffffffffffffffffffffffffffffffffffff168373ffffffffffffffffffffffffffffffffffffffff167fddf252ad1be2c89b69c2b068fc378daa952ba7f163c4a11628f55a4df523b3ef836040518082815260200191505060405180910390a3505050565b6000838311158290611bf4576040517f08c379a00000000000000000000000000000000000000000000000000000000081526004018080602001828103825283818151815260200191508051906020019080838360005b83811015611bb9578082015181840152602081019050611b9e565b50505050905090810190601f168015611be65780820380516001836020036101000a031916815260200191505b509250505060405180910390fd5b5060008385039050809150509392505050565b600080828401905083811015611c85576040517f08c379a000000000000000000000000000000000000000000000000000000000815260040180806020018281038252601b8152602001807f536166654d6174683a206164646974696f6e206f766572666c6f77000000000081525060200191505060405180910390fd5b8091505092915050565b600073ffffffffffffffffffffffffffffffffffffffff168273ffffffffffffffffffffffffffffffffffffffff161415611d32576040517f08c379a000000000000000000000000000000000000000000000000000000000815260040180806020018281038252601f8152602001807f45524332303a206d696e7420746f20746865207a65726f20616464726573730081525060200191505060405180910390fd5b611d4781600254611c0790919063ffffffff16565b600281905550611d9e816000808573ffffffffffffffffffffffffffffffffffffffff1673ffffffffffffffffffffffffffffffffffffffff16815260200190815260200160002054611c0790919063ffffffff16565b6000808473ffffffffffffffffffffffffffffffffffffffff1673ffffffffffffffffffffffffffffffffffffffff168152602001908152602001600020819055508173ffffffffffffffffffffffffffffffffffffffff16600073ffffffffffffffffffffffffffffffffffffffff167fddf252ad1be2c89b69c2b068fc378daa952ba7f163c4a11628f55a4df523b3ef836040518082815260200191505060405180910390a35050565b6040518060a0016040528060008152602001600081526020016000815260200160608152602001600073ffffffffffffffffffffffffffffffffffffffff1681525090565b828054600181600116156101000203166002900490600052602060002090601f016020900481019282601f10611ed057805160ff1916838001178555611efe565b82800160010185558215611efe579182015b82811115611efd578251825591602001919060010190611ee2565b5b509050611f0b9190611f4d565b5090565b6040518060800160405280600081526020016000815260200160608152602001600073ffffffffffffffffffffffffffffffffffffffff1681525090565b611f6f91905b80821115611f6b576000816000905550600101611f53565b5090565b9056fe45524332303a207472616e7366657220746f20746865207a65726f206164647265737345524332303a20617070726f766520746f20746865207a65726f206164647265737345524332303a207472616e7366657220616d6f756e7420657863656564732062616c616e636545524332303a207472616e7366657220616d6f756e74206578636565647320616c6c6f77616e636545524332303a207472616e736665722066726f6d20746865207a65726f206164647265737345524332303a20617070726f76652066726f6d20746865207a65726f206164647265737345524332303a2064656372656173656420616c6c6f77616e63652062656c6f77207a65726fa265627a7a7231582013cb599466305daccaa12b9339d1fd85af1f709014d144c53d1a02b31385d63864736f6c63430005100032",
  "source": "pragma solidity >0.5.0;\n\nimport \"./token/ERC20/ERC20.sol\";\n\ncontract CarbonCredit is ERC20{\n    \n    address contractOwner;\n\n    struct Generator {\n        uint id;\n        uint tokenBalance;\n        string generatorName;\n        address generatorAddress;\n    }\n\n    struct Consumer {\n        uint id;\n        uint tokenBalance;\n        uint emissions; //current emissions so far \n        string consumerName;\n        address consumerAddress;\n    }\n\n    mapping(uint => Generator) allGenerators;\n    mapping(uint => Consumer) allConsumers;\n    mapping(address => bool) allValidators;\n\n    mapping(uint => bool) generatorExists;\n    mapping(uint => bool) consumerExists;\n\n    uint[] consumerList;\n    uint numExceeded; \n\n    // constructor() public ERC20(\"Carbon Token\", \"c\") {\n    //     contractOwner = msg.sender;\n    // }\n\n    constructor() public ERC20() {\n        contractOwner = msg.sender;\n    }\n\n    modifier isValidator() {\n        require(allValidators[msg.sender] == true);\n        _;\n    }\n\n    modifier isRegulator() {\n        require(contractOwner == msg.sender);\n        _;\n    }\n\n    //Create new generator and store in mapping, assign values (balance = 0) \n    function createGenerator(uint generatorId, string memory name, address thisAdd) public isRegulator {\n        require(generatorExists[generatorId] == false);\n\n        Generator memory newGenerator = Generator(\n            generatorId,\n            0,\n            name,\n            thisAdd\n        );\n\n        allGenerators[generatorId] = newGenerator;\n        generatorExists[generatorId] = true;\n\n    }\n    //Create new consumer and store in mapping, assign values (balance = limit)\n    function createConsumer(uint consumerId, string memory name, address thisAdd) public isRegulator {\n        require(consumerExists[consumerId] == false);\n\n        Consumer memory newConsumer = Consumer(\n            consumerId,\n            100,\n            0,\n            name,\n            thisAdd\n        );\n\n        allConsumers[consumerId] = newConsumer;\n        consumerExists[consumerId] = true;\n        consumerList.push(consumerId);\n    }\n\n\n    //Award tokens to generators when carbon saving projects are approved\n    function allocateCredit(uint generatorId, uint credit) public isValidator {\n        require(generatorExists[generatorId] == true);\n        require(credit > 0);\n\n        //_mint(contractOwner, allGenerators[generatorId].generatorAddress, credit, \"receive\", \"fromRegulator\");\n        _mint(allGenerators[generatorId].generatorAddress, credit);\n        allGenerators[generatorId].tokenBalance += credit;\n\n    }\n\n    //Validators input a emissions amt (frontend), add it to consumer's emissions value \n    function reportEmission(uint consumerId, uint emission) public isValidator {\n        require(emission > 0);\n        require(consumerExists[consumerId] == true);\n\n        allConsumers[consumerId].emissions = emission;\n    }\n\n    // Cant put int, must put uint, if not it screws up the entire contract\n    function updateConsumerBalance(uint consumerId, uint delta, bool subtract) public {\n        require(consumerExists[consumerId] == true);\n\n        if (subtract) {\n            allConsumers[consumerId].tokenBalance -= delta;\n        } else {\n            allConsumers[consumerId].tokenBalance += delta;\n        }\n        \n    }\n\n    // Cant put int, must put uint, if not it screws up the entire contract\n    function updateGeneratorBalance(uint generatorId, uint delta, bool subtract) public {\n        require(generatorExists[generatorId] == true);\n        \n\n        if (subtract) {\n            allGenerators[generatorId].tokenBalance -= delta;\n        } else {\n            allGenerators[generatorId].tokenBalance += delta;\n        }\n    }\n\n    // GETTERS\n    function getConsumerCredits(uint consumerId) public view returns (uint credit) {\n        require(consumerExists[consumerId] == true);\n        return (allConsumers[consumerId].tokenBalance);\n    }\n\n    function getGeneratorCredits(uint generatorId) public view returns (uint credit) {\n        require(generatorExists[generatorId] == true);\n        return (allGenerators[generatorId].tokenBalance);\n    }\n\n    function isGenerator(uint ID) public view returns (bool doesExist) {\n        return (generatorExists[ID]);\n    }\n\n    function isConsumer(uint ID) public view returns (bool doesExist) {\n        return (consumerExists[ID]);\n    }\n\n\n    // //For each consumer in mapping, check if emissions > tokenBalance. If exceeded, adds to result list. \n    function checkEmission() isRegulator public view returns (uint[] memory, uint[] memory, uint[] memory, uint[] memory) {\n         //Returns 4 arrays: ID, balance, emissions and exceededBy. Same index corresponds to same company.\n        uint resCount;\n\n        for (uint i=0; i<consumerList.length; i++) {\n             uint thisID = consumerList[i];\n             uint thisBalance = allConsumers[thisID].tokenBalance;\n             uint thisEmission = allConsumers[thisID].emissions;\n\n             if (thisEmission > thisBalance) {\n                 resCount ++;\n             }\n        }\n\n        uint[] memory resID = new uint[](resCount);\n        uint[] memory resBalance = new uint[](resCount); \n        uint[] memory resEmission = new uint[](resCount); \n        uint[] memory resExceededBy= new uint[](resCount); \n        uint j = 0;\n\n         for (uint i=0; i<consumerList.length; i++) {\n             uint thisID = consumerList[i];\n             uint thisBalance = allConsumers[thisID].tokenBalance;\n             uint thisEmission = allConsumers[thisID].emissions;\n\n             if (thisEmission > thisBalance) {\n                 uint amtExceeded = thisEmission - thisBalance;\n                 resID[j] = thisID;\n                 resBalance[j] = thisBalance;\n                 resEmission[j] = thisEmission;\n                 resExceededBy[j] = amtExceeded;\n                 j++;\n             }\n         }\n\n         return (resID, resBalance, resEmission, resExceededBy);\n     }\n\n    \n}",
  "sourcePath": "C:/Users/ksjag/Documents/NUS/Sem 8/IS4302 Blockchain/Group Project/Carbon Trading Project/contracts/CarbonCredit.sol",
  "compiler": {
    "name": "solc",
    "version": "0.5.16+commit.9c3226ce.Emscripten.clang"
  },
  "schemaVersion": "3.3.3",
  "updatedAt": "2021-04-04T15:10:59.486Z",
  "networkType": "ethereum",
  "devdoc": {
    "methods": {
      "allowance(address,address)": {
        "details": "See {IERC20-allowance}."
      },
      "approve(address,uint256)": {
        "details": "See {IERC20-approve}.     * Requirements:     * - `spender` cannot be the zero address."
      },
      "balanceOf(address)": {
        "details": "See {IERC20-balanceOf}."
      },
      "decreaseAllowance(address,uint256)": {
        "details": "Atomically decreases the allowance granted to `spender` by the caller.     * This is an alternative to {approve} that can be used as a mitigation for problems described in {IERC20-approve}.     * Emits an {Approval} event indicating the updated allowance.     * Requirements:     * - `spender` cannot be the zero address. - `spender` must have allowance for the caller of at least `subtractedValue`."
      },
      "increaseAllowance(address,uint256)": {
        "details": "Atomically increases the allowance granted to `spender` by the caller.     * This is an alternative to {approve} that can be used as a mitigation for problems described in {IERC20-approve}.     * Emits an {Approval} event indicating the updated allowance.     * Requirements:     * - `spender` cannot be the zero address."
      },
      "totalSupply()": {
        "details": "See {IERC20-totalSupply}."
      },
      "transfer(address,uint256)": {
        "details": "See {IERC20-transfer}.     * Requirements:     * - `recipient` cannot be the zero address. - the caller must have a balance of at least `amount`."
      },
      "transferFrom(address,address,uint256)": {
        "details": "See {IERC20-transferFrom}.     * Emits an {Approval} event indicating the updated allowance. This is not required by the EIP. See the note at the beginning of {ERC20};     * Requirements: - `sender` and `recipient` cannot be the zero address. - `sender` must have a balance of at least `amount`. - the caller must have allowance for `sender`'s tokens of at least `amount`."
      }
    }
  },
  "userdoc": {
    "methods": {}
  }
}