{
  "contractName": "MarketPlace",
  "abi": [
    {
      "inputs": [
        {
          "internalType": "contract CarbonCredit",
          "name": "carbonCredit_address",
          "type": "address"
        }
      ],
      "payable": false,
      "stateMutability": "nonpayable",
      "type": "constructor"
    },
    {
      "constant": true,
      "inputs": [
        {
          "internalType": "uint256",
          "name": "",
          "type": "uint256"
        }
      ],
      "name": "prices",
      "outputs": [
        {
          "internalType": "uint256",
          "name": "",
          "type": "uint256"
        }
      ],
      "payable": false,
      "stateMutability": "view",
      "type": "function"
    },
    {
      "constant": false,
      "inputs": [
        {
          "internalType": "uint256",
          "name": "firmId",
          "type": "uint256"
        },
        {
          "internalType": "uint256",
          "name": "price",
          "type": "uint256"
        },
        {
          "internalType": "uint256",
          "name": "quantity",
          "type": "uint256"
        }
      ],
      "name": "listCredit",
      "outputs": [],
      "payable": false,
      "stateMutability": "nonpayable",
      "type": "function"
    },
    {
      "constant": false,
      "inputs": [
        {
          "internalType": "uint256",
          "name": "firmId",
          "type": "uint256"
        },
        {
          "internalType": "uint256",
          "name": "quantity",
          "type": "uint256"
        }
      ],
      "name": "buyCredit",
      "outputs": [
        {
          "internalType": "uint256",
          "name": "numFilled",
          "type": "uint256"
        },
        {
          "internalType": "uint256",
          "name": "avgPriceFilled",
          "type": "uint256"
        }
      ],
      "payable": false,
      "stateMutability": "nonpayable",
      "type": "function"
    }
  ],
  "bytecode": "0x6080604052600060035534801561001557600080fd5b50604051610bd4380380610bd48339818101604052602081101561003857600080fd5b8101908080519060200190929190505050806000806101000a81548173ffffffffffffffffffffffffffffffffffffffff021916908373ffffffffffffffffffffffffffffffffffffffff16021790555050610b3b806100996000396000f3fe608060405234801561001057600080fd5b50600436106100415760003560e01c8063bc31c1c114610046578063c8e6b51114610088578063f0c290f1146100db575b600080fd5b6100726004803603602081101561005c57600080fd5b810190808035906020019092919050505061011d565b6040518082815260200191505060405180910390f35b6100be6004803603604081101561009e57600080fd5b81019080803590602001909291908035906020019092919050505061013e565b604051808381526020018281526020019250505060405180910390f35b61011b600480360360608110156100f157600080fd5b810190808035906020019092919080359060200190929190803590602001909291905050506104b2565b005b6002818154811061012a57fe5b906000526020600020016000915090505481565b600080836000809054906101000a900473ffffffffffffffffffffffffffffffffffffffff1673ffffffffffffffffffffffffffffffffffffffff166337c98264826040518263ffffffff1660e01b81526004018082815260200191505060206040518083038186803b1580156101b457600080fd5b505afa1580156101c8573d6000803e3d6000fd5b505050506040513d60208110156101de57600080fd5b81019080805190602001909291905050506101f857600080fd5b6000841161020257fe5b6000809054906101000a900473ffffffffffffffffffffffffffffffffffffffff1673ffffffffffffffffffffffffffffffffffffffff166337c98264866040518263ffffffff1660e01b81526004018082815260200191505060206040518083038186803b15801561027457600080fd5b505afa158015610288573d6000803e3d6000fd5b505050506040513d602081101561029e57600080fd5b81019080805190602001909291905050506102b557fe5b600080905060008090505b8582101561049857600060026000815481106102d857fe5b906000526020600020015414806102f157506000600354145b15610326576000821415610310578160008090509450945050506104aa565b8182828161031a57fe5b049450945050506104aa565b6000600260008154811061033657fe5b90600052602060002001549050600060016000838152602001908152602001600020600101549050600084890390508082111561037e57808501945080830284019350610490565b8082101561048f5781850194508183028401935060026000815481106103a057fe5b90600052602060002001600090556002600160035403815481106103c057fe5b906000526020600020015460026000815481106103d957fe5b90600052602060002001819055506001600360008282540392505081905550610454600280548060200260200160405190810160405280929190818152602001828054801561044757602002820191906000526020600020905b815481526020019060010190808311610433575b50505050506003546109dd565b6001600084815260200190815260200160002060008082016000905560018201600090556002820160006101000a81549060ff021916905550505b5b5050506102c0565b818282816104a257fe5b049450945050505b509250929050565b826000809054906101000a900473ffffffffffffffffffffffffffffffffffffffff1673ffffffffffffffffffffffffffffffffffffffff166337c98264826040518263ffffffff1660e01b81526004018082815260200191505060206040518083038186803b15801561052557600080fd5b505afa158015610539573d6000803e3d6000fd5b505050506040513d602081101561054f57600080fd5b810190808051906020019092919050505061056957600080fd5b6000809054906101000a900473ffffffffffffffffffffffffffffffffffffffff1673ffffffffffffffffffffffffffffffffffffffff166337c98264856040518263ffffffff1660e01b81526004018082815260200191505060206040518083038186803b1580156105db57600080fd5b505afa1580156105ef573d6000803e3d6000fd5b505050506040513d602081101561060557600080fd5b8101908080519060200190929190505050156106d657816000809054906101000a900473ffffffffffffffffffffffffffffffffffffffff1673ffffffffffffffffffffffffffffffffffffffff1663fa25f970866040518263ffffffff1660e01b81526004018082815260200191505060206040518083038186803b15801561068e57600080fd5b505afa1580156106a2573d6000803e3d6000fd5b505050506040513d60208110156106b857600080fd5b810190808051906020019092919050505010156106d157fe5b610840565b6000809054906101000a900473ffffffffffffffffffffffffffffffffffffffff1673ffffffffffffffffffffffffffffffffffffffff16630bdb3069856040518263ffffffff1660e01b81526004018082815260200191505060206040518083038186803b15801561074857600080fd5b505afa15801561075c573d6000803e3d6000fd5b505050506040513d602081101561077257600080fd5b81019080805190602001909291905050501561083f57816000809054906101000a900473ffffffffffffffffffffffffffffffffffffffff1673ffffffffffffffffffffffffffffffffffffffff16638ff283c2866040518263ffffffff1660e01b81526004018082815260200191505060206040518083038186803b1580156107fb57600080fd5b505afa15801561080f573d6000803e3d6000fd5b505050506040513d602081101561082557600080fd5b8101908080519060200190929190505050101561083e57fe5b5b5b6000831161084a57fe5b600015156001600085815260200190815260200160002060020160009054906101000a900460ff161515146108ca576040517f08c379a000000000000000000000000000000000000000000000000000000000815260040180806020018281038252603b815260200180610acc603b913960400191505060405180910390fd5b6108d2610aa8565b60405180606001604052808681526020018481526020016001151581525090508060016000868152602001908152602001600020600082015181600001556020820151816001015560408201518160020160006101000a81548160ff021916908315150217905550905050600284908060018154018082558091505090600182039060005260206000200160009091929091909150555060016003600082825401925050819055506109d660028054806020026020016040519081016040528092919081815260200182805480156109c957602002820191906000526020600020905b8154815260200190600101908083116109b5575b50505050506003546109dd565b5050505050565b60008190506000600190505b81811015610aa25760008482815181106109ff57fe5b6020026020010151905060006001830390505b60008112158015610a35575081868281518110610a2b57fe5b6020026020010151115b15610a7757858181518110610a4657fe5b6020026020010151866001830181518110610a5d57fe5b602002602001018181525050808060019003915050610a12565b81866001830181518110610a8757fe5b602002602001018181525050505080806001019150506109e9565b50505050565b60405180606001604052806000815260200160008152602001600015158152509056fe7468697320707269636520697320616c7265616479206c69737465642e20506c6561736520676f206f6e65207570206f72206f6e6520646f776e2ea265627a7a7231582042fa01971df1355dc6f57555b831a2b1f2663df09fc5ffc83767fa58bb0dc10264736f6c63430005100032",
  "source": "pragma solidity ^0.5.0;\n\nimport \"./CarbonCredit.sol\";\n\ncontract MarketPlace {\n\n    CarbonCredit carbonCredit;\n\n    struct listing {\n            uint firmId;\n            uint qty;\n            bool isValue;\n        }\n\n\n    // {priceOfCredit: {firmId: numberOfCredits}}\n    mapping(uint => listing) creditsForSale;\n    uint[] public prices;  // wont allow duplicate price listings\n    uint numListings = 0;\n\n    constructor(CarbonCredit carbonCredit_address) public {\n        carbonCredit = carbonCredit_address;\n    }\n\n    modifier onlyConsumer(uint firmId) {\n        require(carbonCredit.isConsumer(firmId));\n        _;\n    }\n\n    modifier onlyGenerator(uint firmId) {\n        require(carbonCredit.isGenerator(firmId));\n        _;\n    }\n\n    // this gets added to the sorted list of prices. We will prevent people from listing \n    function listCredit(uint firmId, uint price, uint quantity) public onlyConsumer(firmId) {\n\n        if (carbonCredit.isConsumer(firmId)) {\n            assert(carbonCredit.getConsumerCredits(firmId) >= quantity);\n        } else if (carbonCredit.isGenerator(firmId)) {\n            assert(carbonCredit.getGeneratorCredits(firmId) >= quantity);\n        }\n        \n        assert(price > 0); // can only list positive price\n        require(creditsForSale[price].isValue == false, \"this price is already listed. Please go one up or one down.\");  // the price shouldnt exist in the dictionary. We only allow unique price listings.\n\n        // create the mapping of the listing and add to creditsForSale mapping\n        listing memory newListing = listing(firmId, quantity, true);\n        creditsForSale[price] = newListing;\n\n        // add the same thing to the list of prices, then sort\n        prices.push(price);\n        numListings += 1;\n        insertionSort(prices, numListings);\n\n        // SHERVIN - need to transfer tokens from the seller to the marketplace\n\n    }\n\n\n    function buyCredit(uint firmId, uint quantity) public onlyConsumer(firmId) returns (uint numFilled, uint avgPriceFilled) {\n        // looks at creditsForSale and picks the lowest price.\n        // this process is repeated until the entire buy order is satisfied\n        assert(quantity > 0);\n        assert(carbonCredit.isConsumer(firmId));\n\n        uint filledSoFar = 0;\n        uint totalPaid = 0;\n\n        // while loop runs either until we fill the quantity, or we run out of listings\n        while (filledSoFar < quantity) {\n            if(prices[0] == 0 || numListings == 0) {  // this is the case where there are no more listings\n                if (filledSoFar == 0) {return (filledSoFar, 0);}\n                else {return (filledSoFar, totalPaid/filledSoFar);}\n            }\n\n            uint currPrice = prices[0];\n            uint currQty = creditsForSale[currPrice].qty;\n            uint yetToFill = quantity - filledSoFar;\n\n            if(currQty > yetToFill) {  // this is the case where this is the last listing we have to look at\n                filledSoFar += yetToFill;\n                totalPaid += currPrice*yetToFill;\n                // after this we break out of the loop\n            }\n\n            else if (currQty < yetToFill) {  // if this listing is still not enough to completely fill our order\n                filledSoFar += currQty;  // assign all\n                totalPaid += currPrice*currQty;\n\n                // now we have to pop the array and re-sort\n                delete prices[0];\n                prices[0] = prices[numListings-1];\n                numListings -= 1;\n                insertionSort(prices, numListings);\n                \n                delete creditsForSale[currPrice];\n            }\n        }\n\n        // SHERVIN - need to transfer contracts from marketplace to this firmId\n\n        return (filledSoFar, totalPaid/filledSoFar);\n\n    }\n\n\n    // // insertion sort function to sort an array\n    // function insertionSort(uint[] memory a) internal {\n    //    for (uint i = 1;i < a.length;i++){\n    //     uint temp = a[i];\n    //     uint j;\n    //     for (j = i -1; j >= 0 && temp < a[j]; j--)\n    //       a[j+1] = a[j];\n    //     a[j + 1] = temp;\n    //    }\n    //   }\n\n    function insertionSort(uint[] memory data, uint numElems) internal pure {\n        uint length = numElems;\n        for (uint i = 1; i < length; i++) {\n            uint key = data[i];\n            uint j = i - 1;\n            while ((int(j) >= 0) && (data[j] > key)) {\n                data[j + 1] = data[j];\n                j--;\n            }\n\n            data[j + 1] = key;\n        }\n    }\n\n}",
  "sourcePath": "C:/Users/ksjag/Documents/NUS/Sem 8/IS4302 Blockchain/Group Project/Carbon Trading Project/contracts/MarketPlace.sol",
  "compiler": {
    "name": "solc",
    "version": "0.5.16+commit.9c3226ce.Emscripten.clang"
  },
  "schemaVersion": "3.3.3",
  "updatedAt": "2021-04-04T15:10:59.510Z",
  "networkType": "ethereum",
  "devdoc": {
    "methods": {}
  },
  "userdoc": {
    "methods": {}
  }
}